:100000000C945C000C94D6020C94AF020C94790012
:100010000C9479000C9479000C94E90D0C947900FF
:100020000C9479000C9479000C9479000C9479006C
:100030000C9479000C9479000C9479000C9479005C
:100040000C9465020C9479000C9479000C9479005E
:100050000C9479000C9479000C9479000C9479003C
:100060000C9479000C947900000000002400270013
:100070002A0000000000250028002B0004040404CE
:100080000404040402020202020203030303030342
:10009000010204081020408001020408102001021F
:1000A00004081020000000080002010000030407FB
:1000B000000000000000000011241FBECFEFD8E0B8
:1000C000DEBFCDBF11E0A0E0B1E0E4E5F0E202C0A8
:1000D00005900D92A033B107D9F721E0A0E3B1E07C
:1000E00001C01D92AE3CB207E1F70E94EC0D0C94EA
:1000F00028100C94000090E0FC01EC55FF4F249177
:10010000FC01E057FF4F3491FC01E458FF4FE491AC
:10011000EE23C9F0222339F0233001F1A8F4213075
:1001200019F1223029F1F0E0EE0FFF1FEE58FF4FDA
:10013000A591B4918FB7F894EC91611126C03095D8
:100140003E233C938FBF08952730A9F02830C9F093
:10015000243049F7809180008F7D03C0809180001A
:100160008F7780938000DFCF84B58F7784BDDBCF1E
:1001700084B58F7DFBCF8091B0008F778093B000E6
:10018000D2CF8091B0008F7DF9CF3E2BDACFCF93C5
:10019000DF9390E0FC01E057FF4F249184589F4F7C
:1001A000FC0184918823D1F090E0880F991FFC0115
:1001B000E859FF4FA591B491FC01EE58FF4FC5914E
:1001C000D491623071F49FB7F8943C91822F80955E
:1001D00083238C93E8812E2B28839FBFDF91CF91BF
:1001E00008958FB7F894EC912E2B2C938FBFF6CFF8
:1001F0000895CF92DF92EF92FF92CF93DF931F92F9
:10020000CDB7DEB78FB7F894C0904A01D0904B01BC
:10021000E0904C01F0904D018FBF80913A01909198
:100220003B01A0913C01B0913D01A7019601281B23
:10023000390B4A0B5B0BDA01C901893C9105A10519
:10024000B10558F081E08983BE016F5F7F4F8091D7
:100250003801909139010E94A405C0923A01D092D0
:100260003B01E0923C01F0923D010F90DF91CF9174
:10027000FF90EF90DF90CF900895CF92DF92EF92B2
:10028000FF92CF93DF9300D0CDB7DEB78FB7F8944E
:10029000C0904A01D0904B01E0904C01F0904D018C
:1002A0008FBF8091340190913501A0913601B091BA
:1002B0003701A7019601281B390B4A0B5B0BDA01AA
:1002C000C901893C9105A105B105A0F0809101010A
:1002D00090910201843F9140F1F084EF91E09A8384
:1002E0008983BE016F5F7F4F80913201909133010E
:1002F0000E94A405C0923401D0923501E0923601EB
:10030000F09237010F900F90DF91CF91FF90EF9017
:10031000DF90CF9008958AEF90E0E1CFCF93DF9305
:1003200000D01F92CDB7DEB78FB7F894C0904A01C6
:10033000D0904B01E0904C01F0904D018FBF809127
:100340000101909102019A83898310E001E08FB747
:10035000F89480904A0190904B01A0904C01B0908D
:100360004D018FBFB501A4014C195D096E097F09CC
:1003700089819A81092E000CAA0BBB0B48175907DB
:100380006A077B0778F01027809100018823C9F164
:10039000612F84E00E947B0060E085E00E947B008A
:1003A00075016401BE016F5F7F4F809132019091B2
:1003B00033010E94E008813031F489819A81909361
:1003C000020180930101BE016D5F7F4F8091380172
:1003D000909139010E94E008813029F49091000148
:1003E0008927809300010E94C40360E081E090E0CF
:1003F0000E9406050E9414078111A9CF0E9454068D
:10040000A6CF60E084E00E947B00612FC6CF0E94EF
:10041000C40360E084E690E00E9406050E94140791
:100420008111F5CF0E945406F2CF0F931F9361E024
:1004300084E00E94C70061E085E00E94C70062E09E
:1004400082E00E94C70062E083E00E94C700A3E050
:10045000B1E08DE391E011969C938E93E9E6F0E094
:1004600080818C7F82608083E89A89EF90E0139688
:100470009C938E9312978081837F88608083E99A12
:1004800082E00E94A60D909333018093320181E0B7
:100490000E94A60D909339018093380110E000E08E
:1004A00021E040E850E06EE071E08EE891E00E94CB
:1004B0007E0C22E040E850E064E171E087E092E0E9
:1004C0000E947E0C1F910F9108951F920F920FB6FC
:1004D0000F9211242F933F938F939F93AF93BF93CA
:1004E00080914A0190914B01A0914C01B0914D0136
:1004F0003091490123E0230F2D3758F50196A11DB6
:10050000B11D2093490180934A0190934B01A09320
:100510004C01B0934D018091450190914601A0910D
:100520004701B09148010196A11DB11D809345017D
:1005300090934601A0934701B0934801BF91AF91BA
:100540009F918F913F912F910F900FBE0F901F9011
:10055000189526E8230F0296A11DB11DD2CF1F9238
:100560000F920FB60F9211242F933F934F935F93E7
:100570006F937F938F939F93AF93BF93EF93FF936B
:10058000E0910501F09106010995FF91EF91BF916E
:10059000AF919F918F917F916F915F914F913F911B
:1005A0002F910F900FBE0F901F9018951F920F92D2
:1005B0000FB60F9211242F933F934F935F936F9336
:1005C0007F938F939F93AF93BF93EF93FF93E091AC
:1005D0000301F09104010995FF91EF91BF91AF9153
:1005E0009F918F917F916F915F914F913F912F914B
:1005F0000F900FBE0F901F901895E0916E01F09133
:100600006F018081811107C08FEF9FEF90936B0185
:1006100080936A010895E0916E01F0916F01058069
:10062000F681E02D80819181F1CFCF93DF93DC01C2
:100630001596ED91FC910680F781E02DA489B5898E
:100640008685978520893189EC013D832C83C0897B
:10065000D1899B838A83CF010C9611962D913C9171
:1006600012972817390721F41296DC93CE9311972D
:10067000158A148A2C9121502C932091410121112B
:1006800057C0A285B3858481958126813781EC018D
:100690003D832C83C681D7819B838A83CF010296B9
:1006A00011962D913C9112972817390721F4129633
:1006B000DC93CE931197138612862C9121502C93A4
:1006C000C6892091C4012C1710F4C093C40129E0FD
:1006D0002C9FE0011124C056DE4F0980DA81C02D25
:1006E000D583C4834C815D8157834683AC81BD81B2
:1006F00013969C938E9312979D838C83A689A29FB9
:10070000D0011124A056BE4FB387A2878C918F5F72
:100710008C93A091C501B091C601968956968C9193
:10072000891730F581E080934001DF91CF910895E2
:10073000A0918301B0918401B787A68714962D916B
:100740003C911597318B208B1496CD91DC911597A8
:100750009B838A8315969C938E93149782E891E0ED
:10076000958B848B809182018F5F80938201D1CFA2
:1007700080E0DBCF0FB6F8940F928091C701909183
:10078000C8010F900FBE0895809141018F5F809343
:10079000410108950FB6F8940F92FC01928D0F90CD
:1007A0000FBE81E0911180E00895EF92FF920F93C8
:1007B0001F93CF93DF93EC010FB6F8940F921E8D29
:1007C0007C0181E1E80EF11C01E01116D4F08FEFFD
:1007D0008E8F0F900FBE0FB6F8940F921D8D7E0175
:1007E00088E0E80EF11C01E01116B4F08FEF8D8F58
:1007F0000F900FBEDF91CF911F910F91FF90EF905F
:1008000008958989882319F3C7010E94150381116E
:10081000009340011150D9CF8885882339F3C7014F
:100820000E9415038111009340011150DDCFCF9339
:10083000DF93FC01A085B18582819381248135817C
:10084000EC013D832C83C481D5819B838A831196DF
:100850008D919C9112978E179F0721F41296DC932D
:10086000CE931197118610868C9181508C93DF91D5
:10087000CF9108950F931F93CF93DF938C01FB01CA
:1008800080819181D80113968F3F9807F1F4E80198
:10089000AF81B88512968D919C9113979383828333
:1008A000EC01FD83EC83B583A4831396FC93EE9354
:1008B000129711870087F80180818F5F8083DF9115
:1008C000CF911F910F910895D90112962D913C91CE
:1008D0001397E9014881598184179507A8F7DACF62
:1008E000FC0173836283918780874617570790F0D6
:1008F000421B530B8485958548175907C8F4BF01DF
:100900006E5F7F4F80915001909151010E943A0497
:1009100080E008954217530718F46217730740F4F4
:10092000BF016E5F7F4F8091520190915301EECFD6
:1009300081E00895EF92FF920F931F93CF93DF937F
:10094000EC018B017A016C857D85600F711F980128
:10095000A701CE010E947004811107C0DF91CF91E1
:100960001F910F91FF90EF9008958C859D85080F42
:10097000191FE889F989CE010995E5CFEF92FF9219
:100980000F931F93CF93DF938C017B01E091520172
:10099000F09153010580F681E02DC681D781CE010B
:1009A00002960E9417048A8982FF0FC0A701B8012E
:1009B000CE010E949A04E889F989CE01DF91CF9196
:1009C0001F910F91FF90EF9009948E7F8A8BF3CF48
:1009D000E0915201F0915301808181110DC080910D
:1009E0005001909151019093530180935201F093E3
:1009F0005101E093500108950580F681E02D6FEFDD
:100A00007FEF808191810E94BE04E2CFBF92CF929E
:100A1000DF92EF92FF920F931F93CF93DF93EC013E
:100A2000B62EC090C701D090C80100916E01109100
:100A30006F01E0906C01F0906D018091C501909183
:100A4000C60102960E941704CF3FDC0709F042C09E
:100A5000BB2009F43FC0E0917101F0917201A091B7
:100A6000C501B091C6011596FC93EE931497A09121
:100A7000C501B091C6018481958117969C938E9390
:100A800016978091C5019091C601A481B581029607
:100A900013969C938E9312978091C5019091C601F5
:100AA000029695838483E091C501F091C60180E7A9
:100AB00091E093878287809170018F5F80937001AE
:100AC000DF91CF911F910F91FF90EF90DF90CF902A
:100AD000BF900895CC0DDD1DE091C501F091C601D8
:100AE000D383C2836091C5017091C6016E5F7F4F51
:100AF000CC15DD0560F4C701DF91CF911F910F91F7
:100B0000FF90EF90DF90CF90BF900C943A04C80113
:100B10000E943A0480916A0190916B01C817D9072D
:100B200078F6D0936B01C0936A01CACFFC0103969B
:100B3000928381832FEF3FEF3483238396838583D2
:100B40009087878310820895CF92DF92EF92FF9271
:100B50000F931F93CF93DF93EC019A8D8B8D981792
:100B600008F098C0FE8C8A8DEA8C4C8D411174C0BF
:100B700088819981892B09F061C00C811D81011543
:100B8000110509F459C0D8019A968C919A97815011
:100B90009A968C939A9756962C91569799969C91E3
:100BA000291709F449C0811147C06801B2E0CB0E92
:100BB000D11CC6010E941704F80181A5868B482F1D
:100BC00050E024E030E0241B350B358724879091DA
:100BD000C401981710F48093C40189E0849FD00168
:100BE000859FB00D1124A056BE4F11960D90BC915B
:100BF000A02DF801B583A48314962D913C911597EF
:100C0000378326831496ED91FC911597D382C28287
:100C10001596DC92CE921497D8015696EC91569781
:100C2000E89FF0011124E056FE4F1B96FC93EE93D3
:100C30001A9780818F5F80831D821C82E394EA8EE5
:100C4000BFEFFB1220C08989882321F0CE01419695
:100C50000E94150381E01FC050E08A819B810E94A1
:100C600018108C8D2A813B81820F932F911D9B83BD
:100C70008A832C813D818217930700F388819981B3
:100C80009B838A83DBCF80919F01F81618F7F3943A
:100C9000FE8EE0CF80E0DF91CF911F910F91FF900A
:100CA000EF90DF90CF9008950F920FB6F8940F92C7
:100CB0001F9211242F923F924F925F926F927F92D8
:100CC0008F929F92AF92BF92CF92DF92EF92FF925C
:100CD0000F931F932F933F934F935F936F937F9344
:100CE0008F939F93AF93BF93CF93DF93EF93FF9334
:100CF000A091C501B091C6010DB60D920EB60D9230
:100D000080914101882321F081E08093400161C0FE
:100D100010924001A091C501B091C601E091C501BA
:100D2000F091C6012D913C918789908D8217930790
:100D3000A8F08091C5019091C6018091C501909164
:100D4000C601259A2D9A2FEF87EA91E6215080401F
:100D50009040E1F700C000001D9AF5CF2091C4013A
:100D600089E001C02150422F50E0849FF001859F0F
:100D7000F00D1124E056FE4F9081992399F3A18143
:100D8000B28112966D917C9172836183289FC0011C
:100D900011248D559E4F6817790721F4858196811E
:100DA0009283818389E0849FF001859FF00D112457
:100DB000E056FE4F0180F281E02D8681978190936D
:100DC000C6018093C5012093C4018091C501909113
:100DD000C601A091C501B091C601CD91CDBFDD91F5
:100DE000DEBFFF91EF91DF91CF91BF91AF919F91C6
:100DF0008F917F916F915F914F913F912F911F91B3
:100E00000F91FF90EF90DF90CF90BF90AF909F90A9
:100E10008F907F906F905F904F903F902F901F909A
:100E20000F900FBE0F9008958F929F92BF92CF9216
:100E3000DF92EF92FF920F931F93CF93DF930FB642
:100E4000F8940F92809141018150809341018091EB
:100E50004101882379F080E00F900FBEDF91CF91A0
:100E60001F910F91FF90EF90DF90CF90BF909F90D8
:100E70008F90089580919F01882369F3E090870106
:100E8000F0908801F0E0E0E039E041E080918201FB
:100E900081115EC0EF2B11F00E94FD02E0903E0137
:100EA000F0903F01E114F10409F47DC189E0D82EEE
:100EB000CC24C3940FEF1FEF80914101811161C1D8
:100EC000C091C701D091C8014E018FEF881A980ACE
:100ED0009092C8018092C70181149104B9F4809165
:100EE0006E0190916F0120916C0130916D013093F2
:100EF0006F0120936E0190936D0180936C0180913E
:100F0000C9018F5F8093C9010E94FD0280916A012F
:100F100090916B01B12C8816990608F026C1E091DA
:100F2000C501F091C601E689DE9EF0011124E0566C
:100F3000FE4F8081823010F0BB24B3948091400139
:100F4000811103C0BB2009F425C1C092400122C118
:100F5000D7011696ED91FC91A489B58966857785B0
:100F600080899189EB019D838C8380899189EC0133
:100F70007B836A83BF01645F7F4F11960D911C9143
:100F800012970617170721F412969C938E931197C8
:100F9000158A148A8C9181508C93A285B3858481A3
:100FA000958166817781EC017D836C836681778191
:100FB000EB019B838A83CF01029611960D911C91C0
:100FC00012970817190721F412967C936E931197C4
:100FD000138612862C9121502C93A6892091C4014E
:100FE0002A1710F4A093C4013A9FD0011124A056EF
:100FF000BE4F11960D90BC91A02DB583A48314967D
:101000006D917C9115977783668314966D917C9191
:101010001597EB019B838A8315969C938E93149767
:101020009689939FD0011124A056BE4FB387A28703
:101030008C918F5F8C93A091C501B091C60156969B
:101040008C91891708F022CF409340011FCFE09187
:101050006E01F0916F010580F681E02D0680F78129
:10106000E02D828193818816990628F490936B0174
:1010700080936A0154CFC285D3858481958126816E
:101080003781DC0115963C932E9314972681378186
:10109000D90113969C938E931297CF0102964981A2
:1010A0005A814817590711F43A8329831386128607
:1010B000288121502883A489B5891097F9F02685C5
:1010C000378540895189E9015D834C834089518985
:1010D000EA013B832A8311966D917C9112979F01BF
:1010E000245F3F4F6217730721F412965C934E936F
:1010F0001197158A148A2C9121502C93A68920913E
:10110000C4012A1710F4A093C401DA9ED00111245F
:10111000A056BE4F11960D90BC91A02DB583A4830F
:1011200014962D913C9115973783268314962D9113
:101130003C911597E9019B838A8315969C938E9326
:10114000149796899D9DD0011124A056BE4FB38758
:10115000A2878C918F5F8C93E091C501F091C601BD
:101160008689891710F4BB24B394E0916E01F09145
:101170006F01808181116BCF10936B0100936A0125
:10118000CECE80913E0190913F01019690933F0118
:1011900080933E01D1E0ED1AF10809F08DCE109256
:1011A0003F0110923E0180914001882309F453CE03
:1011B0008091C5019091C6010E94540681E04CCEF9
:1011C0001F93CF93DF930FB6F8940F92FC01128D0B
:1011D000112369F1FB01EC014C8D4423A9F050E08F
:1011E0002E813F81240F351F3F832E838C819D816B
:1011F0002817390720F0888199819F838E836E811B
:101200007F81CF010E94181011501A8F8885882382
:1012100039F0CE0108960E94150381110E945406F0
:101220000F900FBE81E0DF91CF911F9108950F9035
:101230000FBE80E0F8CF0F920FB6F8940F921F9276
:1012400011242F923F924F925F926F927F928F92D2
:101250009F92AF92BF92CF92DF92EF92FF920F9345
:101260001F932F933F934F935F936F937F938F932E
:101270009F93AF93BF93CF93DF93EF93FF93A0918F
:10128000C501B091C6010DB60D920EB60D9213BEFA
:10129000809141018111F9C08091C7019091C801ED
:1012A00001969093C8018093C701009781F5209122
:1012B0006E0130916F0140916C0150916D0150931E
:1012C0006F0140936E0130936D0120936C0120916A
:1012D000C9012F5F2093C901E0916E01F0916F0168
:1012E0002081211107C02FEF3FEF30936B01209336
:1012F0006A010DC0E0916E01F0916F010580F681E9
:10130000E02D2081318130936B0120936A0120917F
:101310006A0130916B018217930710F420E0A1C09D
:1013200020E039E0D32EE0916E01F0916F01308121
:10133000311107C08FEF9FEF90936B0180936A018B
:1013400090C0E0916E01F0916F010580F681E02D73
:101350000680F781E02D428153818417950728F498
:1013600050936B0140936A017CC0A285B385448190
:10137000558166817781EA017D836C8366817781FF
:10138000EB015B834A83AF014E5F5F4F11960D9176
:101390001C9112970417150721F412967C936E93F3
:1013A0001197138612863C9131503C93A489B589DC
:1013B0001097F9F06685778500891189EB011D8307
:1013C0000C8300891189E8017B836A831196ED9073
:1013D000FC901297BF01645F7F4FE616F70621F479
:1013E00012961C930E931197158A148A3C913150D2
:1013F0003C93A6893091C4013A1710F4A093C4011C
:10140000DA9ED0011124A056BE4F11960D90BC91CA
:10141000A02DB583A48314966D917C911597778345
:10142000668314966D917C911597EB015B834A83DB
:1014300015965C934E93149746894D9DD0011124C7
:10144000A056BE4FB387A2873C913F5F3C93E0918B
:10145000C501F091C6013689341708F064CF21E048
:1014600062CFE091C501F091C601E689D9E0ED9F18
:10147000F0011124E056FE4F8081823008F021E017
:101480008091400181110EC00AC080913E0190916F
:101490003F01019690933F0180933E016CC022234F
:1014A00009F469C080914101882321F081E0809393
:1014B000400161C010924001A091C501B091C601E8
:1014C000E091C501F091C6012D913C918789908DE5
:1014D00082179307A8F08091C5019091C601809171
:1014E000C5019091C601259A2D9A2FEF87EA91E6C2
:1014F000215080409040E1F700C000001D9AF5CFD8
:101500002091C40189E001C02150422F50E0849F06
:10151000F001859FF00D1124E056FE4F9081992334
:1015200099F3A181B28112966D917C91728361834E
:10153000289FC00111248D559E4F6817790721F40B
:10154000858196819283818389E0849FF001859FC4
:10155000F00D1124E056FE4F0180F281E02D8681CE
:1015600097819093C6018093C5012093C401809117
:10157000C5019091C601A091C501B091C601CD9160
:10158000CDBFDD91DEBFFF91EF91DF91CF91BF9194
:10159000AF919F918F917F916F915F914F913F910B
:1015A0002F911F910F91FF90EF90DF90CF90BF9000
:1015B000AF909F908F907F906F905F904F903F90F3
:1015C0002F901F900F900FBE0F900895CF93DF9331
:1015D000009751F0EC010E94C403CE010E94890FD4
:1015E000DF91CF910C941407DF91CF910895CF93A1
:1015F000DF9300D000D01F92CDB7DEB785E0B82EC4
:10160000CE0101967C01E0915201F09153011081CD
:10161000D12CC12C112329F00580F681E02DC0804A
:10162000D1800E94C4030E94BA034C0180914301FF
:10163000909144018816990608F04DC00E94E80474
:1016400090924401809243010E941407D701EB2D30
:101650001D92EA95E9F7B7018091680190916901BF
:101660000E94E008882379F2898187FDF4CF0C81FC
:101670001D81D8011A968D919C91892B21F0C8016A
:1016800002960E9417040E94BA036C0180914301E4
:1016900090914401C816D90610F40E94E804D09233
:1016A0004401C0924301E981E150E930A0F60E2ED9
:1016B000000CFF0BEE59F44FD80152968C915297C3
:1016C0000C941210E50BE50B290C110C230CE50B07
:1016D000E50B290C110C90924401809243011123D7
:1016E00051F08C149D0470F00E941407B401C601DF
:1016F0000E94BE04ABCFE0915001F091510161E036
:101700008081811160E000916801109169010FB63C
:10171000F8940F92D8015D968C915D978F3F11F4EC
:101720005D961C92F801868D8F3F09F4168E0F90FE
:101730000FBED8015A968C915A9781113CC052968F
:10174000ED91FC91A091C501B091C6011F96FC934B
:10175000EE931E97A091C501B091C6018481958139
:1017600051969C938E9350978091C5019091C6019C
:10177000A481B5810C9613969C938E9312978091B9
:10178000C5019091C6010C9695838483E091C501B3
:10179000F091C601C8014196958B848BF80181892F
:1017A0008F5F818BC60188199909662311F08FEF2D
:1017B0009FEF0E940605C8010E94D5030E941407EE
:1017C000811144CF0E94540641CF8160F801828B81
:1017D0002A813B8164857585620F731FA601C8014C
:1017E0000E947004882309F436CFD80152968C9158
:1017F000529782FF12C06A817B811C968D919C91C9
:10180000680F791FA601C8010E949A04D80150965A
:10181000ED91FC91C80109951ECF8E7FF801828B56
:10182000F5CF816052968C9352976A817B811D9689
:101830007C936E931C976C0D7D1D9601A601C801CB
:101840000E94700408CF81FD04C0C8010E94E60A0E
:1018500002CF8E7FF801828BFECE00E010E08091F7
:10186000420181110CC08091A001823010F00E94D1
:1018700054060115110599F30E940000F0CF0FB630
:10188000F8940F92E0917E01F0917F01C681D7819B
:10189000CE0102960E94170480919F01815080938F
:1018A0009F01809142018150809342010F900FBEB1
:1018B0008F89988D0E94E60ACE010E94E60ACFCF5A
:1018C000CF93DF93EC010E94C403CE010E94ED0E82
:1018D000EC010E941407209769F4259A2D9A2FEFA6
:1018E00080E792E0215080409040E1F700C0000086
:1018F0001D9AF5CFCE01DF91CF9108957F928F92FF
:101900009F92AF92BF92CF92DF92EF92FF920F938E
:101910001F93CF93DF93982EA92E762E872E7A01D0
:10192000B22ECA010E94600C6C01892B09F4EDC033
:1019300080E390E00E94600CEC01892B09F4E2C086
:1019400080E3DE011D928A95E9F7D88ECF8AA70140
:1019500065EA70E0C6010E942110B1E0EB1AF108BF
:10196000EF89F88DEE0DFF1D672D782DCE0149967C
:101970009B01205F3F4FDB014D91BD01DC014D9389
:10198000CD01AB0141505109DA014C91442319F0CA
:101990002617370781F718A6BE8AB9A61B861A86AE
:1019A0001D8A1C8AD987C88784E090E08B19910929
:1019B0009D878C87DB8BCA8B9082DF011197AC925D
:1019C00011971C92119780E88C9311971C9257974E
:1019D0001C9211971C92B397F983E88301151105A6
:1019E00019F0F801D183C0830FB6F8940F9280915B
:1019F0009F018F5F80939F018091C5019091C601E7
:101A0000892B09F091C0D093C601C093C501809184
:101A10009F01813081F580EA91E00E94960589EA74
:101A200091E00E94960582EB91E00E9496058BEB77
:101A300091E00E94960584E991E00E9496058BE86A
:101A400091E00E94960582E891E00E94960589E760
:101A500091E00E94960580E791E00E94960584E956
:101A600091E090936F0180936E018BE891E09093E9
:101A70006D0180936C0180919D018F5F80939D012A
:101A8000AE898091C4018A1710F4A093C40129E0A3
:101A90002A9FD0011124A056BE4F11960D90BC91E3
:101AA000A02DBD83AC8314968D919C9115979F8337
:101AB0008E831496ED91FC911597CE010296938337
:101AC000828315969C938E931497EE89E29FF00182
:101AD0001124E056FE4FFB87EA8780818F5F808369
:101AE0000F900FBE80919E01882351F0E091C501B7
:101AF000F091C60196898E89981710F40E945406B9
:101B000081E004C0C6010E94E60A8FEFDF91CF9109
:101B10001F910F91FF90EF90DF90CF90BF90AF900B
:101B20009F908F907F90089580919E018111A3CF07
:101B3000E091C501F091C60196898E89891708F454
:101B40009ACFD093C601C093C50195CF0F931F9331
:101B5000CF93DF93182F0AE0809FC00111244F9686
:101B60000E94600CEC01009771F14F969983888375
:101B70000B8F1C8F0FB6F8940F92888199812B8D53
:101B80004C8DBC01249F600D711D11247D836C83DD
:101B90001A8E9B838A832150330B429FB001439F4F
:101BA000700D1124860F971F9F838E838FEF8D8F6B
:101BB0008E8FCE0108960E949605CE0141960E9416
:101BC00096050F900FBECE01DF91CF911F910F911F
:101BD00008950E941B091895CF93DF93CDB7DEB708
:101BE00060970FB6F894DEBF0FBECDBF789484B572
:101BF000826084BD84B5816084BD85B5826085BD09
:101C000085B5816085BD80916E00816080936E0096
:101C10001092810080918100826080938100809188
:101C20008100816080938100809180008160809339
:101C300080008091B10084608093B1008091B000F9
:101C400081608093B00080917A00846080937A00F4
:101C500080917A00826080937A0080917A0081601E
:101C600080937A0080917A00806880937A00109245
:101C7000C10020910C0130910D018FEF98E0821B83
:101C8000930B90930901809308010E941502A2E230
:101C9000B1E0FE013196BF018D918193882321F03F
:101CA00081E0A233B807C1F70EE411E020E040EC78
:101CB00050E08DE29CE00E947E0C882309F481C0F4
:101CC000813009F07EC00FB6F8940F9280916801C0
:101CD00090916901892BD9F48DE591E00E949605D8
:101CE00084E591E00E9496058DE591E09093530183
:101CF0008093520184E591E09093510180935001CB
:101D000085E00E94A60D90936901809368010F9071
:101D10000FBE8091680190916901892B09F451C02F
:101D200006E611E023E04CE550E067E271E087EF62
:101D30009AE00E947E0C813009F043C0F8942FEFA6
:101D40003FEF30936B0120936A0180939E011092C4
:101D5000C8011092C701A89588E190EC0FB6F894DD
:101D6000A895809360000FBE90936000A091C5017C
:101D7000B091C601CD91CDBFDD91DEBFFF91EF9156
:101D8000DF91CF91BF91AF919F918F917F916F9193
:101D90005F914F913F912F911F910F91FF90EF9085
:101DA000DF90CF90BF90AF909F908F907F906F907B
:101DB0005F904F903F902F901F900F900FBE0F900D
:101DC0000895809107010E94150200E010E00115BE
:101DD0001105E9F30E940000FACF0F931F93CF93F0
:101DE000DF938230910510F482E090E0E091CC0125
:101DF000F091CD0130E020E0B0E0A0E0309799F420
:101E00002115310509F44AC0281B390B243031054E
:101E1000D8F58A819B816115710589F1FB01938356
:101E20008283FE0111C040815181028113814817D4
:101E30005907E0F04817590799F4109761F0129686
:101E40000C93129713961C933296CF01DF91CF918A
:101E50001F910F9108950093CC011093CD01F4CF01
:101E60002115310551F04217530738F0A901DB0164
:101E70009A01BD01DF01F801C1CFEF01F9CF9093C5
:101E8000CD018093CC01CDCFFE01E20FF31F8193F2
:101E900091932250310939832883D7CF2091CA01E9
:101EA0003091CB01232B41F420910A0130910B0199
:101EB0003093CB012093CA01209108013091090190
:101EC0002115310541F42DB73EB740910C015091D9
:101ED0000D01241B350BE091CA01F091CB01E217F3
:101EE000F307A0F42E1B3F0B2817390778F0AC013D
:101EF0004E5F5F4F2417350748F04E0F5F1F50931A
:101F0000CB014093CA01819391939FCFF0E0E0E031
:101F10009CCFCF93DF930097E9F0FC0132971382B7
:101F20001282A091CC01B091CD01ED0130E020E012
:101F30001097A1F420813181820F931F2091CA0153
:101F40003091CB012817390709F061C0F093CB011C
:101F5000E093CA01DF91CF910895EA01CE17DF0720
:101F6000E8F54A815B819E0141155105B1F7E90110
:101F7000FB83EA8349915991C40FD51FEC17FD07E4
:101F800061F4808191810296840F951FE901998304
:101F90008883828193819B838A83F0E0E0E01296BC
:101FA0008D919C9113970097B9F52D913C911197C4
:101FB000CD010296820F931F2091CA013091CB016F
:101FC0002817390739F6309751F51092CD01109244
:101FD000CC01B093CB01A093CA01BCCFD383C28301
:101FE00040815181840F951FC817D90761F44E5F56
:101FF0005F4F88819981480F591F518340838A819F
:102000009B81938382832115310509F0B0CFF09332
:10201000CD01E093CC019ECFFD01DC01C0CF138246
:102020001282D7CFEE0FFF1F0590F491E02D099497
:10203000FB01DC0102C001900D9241505040D8F7E5
:102040000895DC0101C06D9341505040E0F70895C0
:04205000F894FFCF32
:1020540001F401F800F800030000CE018000426C96
:10206400696E6B0048616E646C65427574746F6E62
:10207400730049444C4500546D722053766300004C
:00000001FF
