:100000000C9461000C94CB010C94A4010C947E0020
:100010000C947E000C947E000C947E000C947E0068
:100020000C947E000C947E000C947E000C947E0058
:100030000C947E000C947E000C947E000C947E0048
:100040000C945A010C947E000C947E000C947E005B
:100050000C947E000C947E000C947E000C947E0028
:100060000C947E000C947E00000000002400270009
:100070002A0000000000250028002B0000000000DE
:1000800023002600290004040404040404040202DA
:100090000202020203030303030301020408102007
:1000A0004080010204081020010204081020000012
:1000B0000008000201000003040700000000000027
:1000C000000011241FBECFEFD8E0DEBFCDBF11E08E
:1000D000A0E0B1E0ECE6F5E002C005900D92AA3098
:1000E000B107D9F721E0AAE0B1E001C01D92A93122
:1000F000B207E1F70E94F2010C94B4020C940000E4
:1001000080910A0191E0892780930A0180910A0178
:10011000882369F084EF91E0A0E0B0E080930501CE
:1001200090930601A0930701B0930801089588EE0B
:1001300093E0A0E0B0E0F2CF90910B0121E0922794
:1001400090930B018091040182278093040108950C
:10015000833081F028F4813099F08230A9F008953D
:100160008730A9F08830C9F08430B1F480918000E4
:100170008F7D03C0809180008F77809380000895E9
:1001800084B58F7784BD089584B58F7DFBCF809132
:10019000B0008F778093B00008958091B0008F7D7C
:1001A000F9CFCF93DF93282F30E0F901E255FF4FCD
:1001B0008491F901E656FF4FD491F901EA57FF4FB8
:1001C000C491CC23A1F081110E94A800EC2FF0E093
:1001D000EE0FFF1FE458FF4FA591B491EC91ED2372
:1001E00081E090E009F480E0DF91CF91089580E014
:1001F00090E0FACF1F93CF93DF93282F30E0F901DF
:10020000E255FF4F8491F901E656FF4FD491F90171
:10021000EA57FF4FC491CC23A9F0162F81110E94F9
:10022000A800EC2FF0E0EE0FFF1FEE58FF4FA59156
:10023000B4918FB7F894EC91111108C0D095DE23DA
:10024000DC938FBFDF91CF911F910895DE2BF8CF04
:10025000CF93DF9390E0FC01E656FF4F24918A573D
:100260009F4FFC0184918823D1F090E0880F991F63
:10027000FC01E859FF4FA591B491FC01EE58FF4FE6
:10028000C591D49161110EC09FB7F8948C91E22F63
:10029000E0958E238C932881E223E8839FBFDF9132
:1002A000CF9108958FB7F894EC91E22BEC938FBF28
:1002B000F6CF08951F920F920FB60F9211242F932D
:1002C0003F938F939F93AF93BF9380911101909130
:1002D0001201A0911301B09114013091100123E09B
:1002E000230F2D3758F50196A11DB11D2093100144
:1002F0008093110190931201A0931301B093140104
:1003000080910C0190910D01A0910E01B0910F010F
:100310000196A11DB11D80930C0190930D01A09336
:100320000E01B0930F01BF91AF919F918F913F91BB
:100330002F910F900FBE0F901F90189526E8230F56
:100340000296A11DB11DD2CF1F920F920FB60F9230
:1003500011242F933F934F935F936F937F938F93CA
:100360009F93AF93BF93EF93FF93E0910201F091BE
:1003700003010995FF91EF91BF91AF919F918F91EB
:100380007F916F915F914F913F912F910F900FBE91
:100390000F901F9018951F920F920FB60F92112475
:1003A0002F933F934F935F936F937F938F939F937D
:1003B000AF93BF93EF93FF93E0910001F0910101A0
:1003C0000995FF91EF91BF91AF919F918F917F918F
:1003D0006F915F914F913F912F910F900FBE0F90B2
:1003E0001F901895789484B5826084BD84B581602F
:1003F00084BD85B5826085BD85B5816085BD8091F0
:100400006E00816080936E00109281008091810067
:10041000826080938100809181008160809381005F
:10042000809180008160809380008091B100846021
:100430008093B1008091B00081608093B000809182
:100440007A00846080937A0080917A008260809341
:100450007A0080917A00816080937A0080917A009E
:10046000806880937A001092C10061E084E00E946D
:10047000280161E085E00E94280160E082E00E949E
:10048000280160E083E00E94280180E890E09093DA
:10049000010180930001809169008C7F82608093CC
:1004A0006900E89A8CE990E090930301809302013F
:1004B00080916900837F886080936900E99AC0E039
:1004C000D0E02FB7F8948091110190911201A09182
:1004D0001301B09114012FBF4091150150911601E5
:1004E00060911701709118018C019D01041B150B7F
:1004F000260B370B409105015091060160910701D1
:10050000709108010417150726073707D0F080936C
:10051000150190931601A0931701B09318018091D3
:1005200004018823A1F084E00E94D10061E0892BBE
:1005300009F060E084E00E94FA0060E085E00E943B
:10054000FA00209709F4BDCF0E940000BACF85E0E1
:100550000E94D10061E0892B09F060E085E00E94F3
:0C056000FA0060E084E0EBCFF894FFCFDD
:0A056C005901590101E803000000E5
:00000001FF
